:020000040800F2
:10000000080A00209D01000871330008D52C000863
:100010003D330008471400083B380008000000008A
:10002000000000000000000000000000653500082E
:1000300049140008000000004D340008673500082E
:10004000B7010008B7010008B7010008B7010008B0
:10005000B7010008B7010008B7010008B7010008A0
:10006000B7010008B7010008B7010008B701000890
:10007000B7010008B7010008B7010008B701000880
:10008000B7010008B7010008B7010008B701000870
:10009000B7010008B7010008B7010008B701000860
:1000A000B7010008B7010008B7010008B701000850
:1000B000B7010008B7010008B7010008B701000840
:1000C000B7010008B7010008B7010008B701000830
:1000D000B7010008B7010008B7010008B701000820
:1000E000B7010008B7010008B7010008B701000810
:1000F000B7010008B7010008B7010008B701000800
:10010000B7010008B7010008B7010008B7010008EF
:10011000B7010008B7010008B7010008B7010008DF
:10012000B7010008B7010008B7010008B7010008CF
:10013000B7010008B7010008B7010008B7010008BF
:10014000B7010008B7010008B7010008B7010008AF
:10015000B7010008B7010008B7010008B70100089F
:10016000B7010008B7010008B7010008B70100088F
:10017000B7010008B7010008B7010008000000003F
:10018000B7010008B7010008DFF80CD000F04EFFFF
:1001900000480047AD640008080A00200648804770
:1001A00006480047FEE7FEE7FEE7FEE7FEE7FEE75C
:1001B000FEE7FEE7FEE7FEE7DD35000889010008FF
:1001C0002DE9F05F0546002092469B46884606468C
:1001D000814640241BE0284641464746224600F01F
:1001E0005CFD53465A46C01A914110D31146184639
:1001F000224600F043FD2D1A67EB01084F462246C8
:100200000120002100F03AFD17EB00094E41201EAD
:10021000A4F10104DFDC484631462A464346BDE8E6
:10022000F09F2DE9F0410024061B254671F10006E0
:1002300005DA01240027D0EB070067EB0101161E49
:1002400073F1000605DA0027D2EB0702012567EB00
:100250000303FFF7B5FF86460E4617469C46AC42A1
:1002600004D00025D0EB050E65EB010624B100207B
:10027000D2EB000760EB030C704631463A4663460A
:10028000BDE8F081D2B201E000F8012B491EFBD29B
:1002900070470022F6E710B513460A460446194691
:1002A000FFF7F0FF204610BD30B505462A460B4645
:1002B00012F8010B13F8014B08B1A042F8D01CB1A1
:1002C000002802D06D1CF1E7284630BD421C10F812
:1002D000011B0029FBD1801A704700000FB400B544
:1002E0008DB010A909900B9000914FF0FF300A904B
:1002F00000200C9005480690054807906A4609A81A
:100300000F9900F001FD0DB05DF814FB250D0008FC
:10031000430D00082DE9FF5F1D464FF0FF3BD5E977
:10032000014691465F464FF00008A9697F1C01987D
:100330008847296A824688470028F6D1BAF1FF3FEC
:100340000CD024F4C064002E19DD600614D5BAF177
:100350002B0F09D0BAF12D0F0ED103E0584604B08F
:10036000BDE8F09F44F48064A9697F1C0198884728
:10037000761E8246002E02DDBAF1300F03D0B9F1AD
:10038000000F26D032E0A969761E44F400747F1C69
:10039000019888478246002E05DDBAF1780F06D015
:1003A000BAF1580F03D0B9F1000F10D01EE0B9F127
:1003B000000F02D0B9F1100F18D1A969761E24F4EC
:1003C00000747F1C019888478246102002E00820B4
:1003D00000E00A20814609E008FB0908A969761EA9
:1003E00044F400747F1C019888478246002E05DD86
:1003F0004946504600F073FC0028EDDAE96901989F
:100400008847A00502D46FF00100A8E7E00725D1D6
:10041000600613D5600502D5C8F1000000E0404633
:1004200029680A1D2A600968220501D5087015E0AF
:10043000220701D5088011E008600FE02868011D3F
:1004400029600068210502D580F8008006E02107B8
:1004500002D5A0F8008001E0C0F8008038467EE7B1
:100460002DE9FF5FD2E901A74FF000089169994695
:100470001446DDF838B0464601988847054659EAE3
:100480000B0005D009E0A169761C01988847054654
:10049000216A284688470028F5D1681C03D05FEA06
:1004A000CA7005D015E04FF0FF3004B0BDE8F09FF2
:1004B0002068011D2160D0F800800AE05FEACA7060
:1004C00001D108F8015BA169761C7F1E019888475D
:1004D0000546002F1ADD681C18D0B9F1000F0DD0A9
:1004E000E81705EBD060421120F01F0059F82210E8
:1004F0002A1A012090400142E0D107E0BBF1000F31
:10050000DCD1216A284688470028D7D0E1690198C4
:100510008847BBF1000F07D1002E05DD5FEACA70E6
:1005200002D1002188F80010A068B84203DDBBF1B9
:10053000000F03D017B16FF00100B6E73046B4E703
:100540002DE9FF4F087883B09946FF2805D0491C54
:100550002D2804D00024002008E000200BE0012416
:10056000F9E700EB800003EB4000491C0B78FF2B00
:10057000F7D104B1404200230293147819461D4676
:100580002D2C01D02B2C04D1521C2D2C13D0002447
:100590000294AA461478FF2C0FD00A25A3FB0578F5
:1005A00001FB05814FF0000C03FB0C11521CE319F9
:1005B0004AEB0101EEE70124EAE7814453EA010036
:1005C00002D019F5C87F06DA03980021C0E90011AE
:1005D00007B0BDE8F08F0025AE4E2F46DFF8B88299
:1005E000184600F0FEFCCDE90001B9F1000002DA86
:1005F000C9F1000400E004460023A74A1AEB030BEC
:1006000042EB045A12E0E00707D02A463346384648
:10061000414600F0ECF9074688462A463346104624
:10062000194600F0E4F905460E466410002CEAD1A4
:10063000DDE90001B9F1000F5A46534606DA00F031
:1006400048FA3A46434600F044FA05E000F0CFF994
:100650003A46434600F0CBF9029A0AB181F00041D4
:10066000039AC2E90001B3E72DE9FF4F1F468DB0A1
:10067000D7E901464FF0FF382E2045464FF00009DC
:100680000B90B9696D1C0E988847396A8246884775
:100690000028F6D1BAF1FF3F0AD024F4D064002E2E
:1006A00011DDBAF12B0F08D0BAF12D0F0BD102E0FA
:1006B000404611B08DE744F48064B9696D1C0E9812
:1006C00088478246761E6946600501D52D2000E0E8
:1006D0002B208DF8000001F1010B0DF1200809E03D
:1006E000B9696D1C0E98884782460F9844F40074CF
:1006F000761E0560002E02DDBAF1300FF0D00B99A6
:100700008A453ED144F0800406E00F99681CA9F1A7
:10071000010944F400740860B9696D1C761E0E98D6
:10072000884782463028F0D02BE00B998A4505D1C6
:10073000200603D444F08004761E18E0504605F0ED
:10074000C9F808B30DF11301761E44F400748B450B
:1007500008D2AAF130000BF8010B200607D5A9F149
:10076000010003E0200602D409F101008146A00542
:1007700002D50F99681C0860B9696D1C0E988847EE
:100780008246002ED1DC53E0002E51DDBAF1650F18
:1007900002D0BAF1450F4BD1A00549D5B9696D1CFE
:1007A00024F44074761E0E9888478246002E0CDD95
:1007B0002B2804D0BAF12D0F07D144F48074B96905
:1007C0006D1C0E9888478246761EE00501D52D21C6
:1007D00000E02B2108F8011BCDF82C8021E00DF161
:1007E0002901761E44F4007488450CD2AAF1300029
:1007F00010F0FF0088F8000002D10B99884509D954
:1008000008F1010806E0E00501D5244801E042F2C4
:100810000F708146B9696D1C0E98884782460F9803
:100820000560002E04DD504605F054F80028D6D1AE
:10083000F9690E988847FF208BF8000088F80000BF
:100840000020069007904B466A4608A906A8FFF7C5
:1008500077FEA00502D46FF001002AE714F0240F00
:100860000AD0E00714D1DDE906123868031D3B60A9
:100870000068C0E900120BE0DDE9060100F0E2F9D2
:100880000146E00704D13868021D3A600068016043
:1008900028460EE7000014400000F03FF1D8FFFFAB
:1008A0002DE9FE4F804681EA0300C00F0C46009000
:1008B00021F0004123F00045B8EB0200A94105D228
:1008C0004046214690461C460B46024623F0004017
:1008D000104347D0270DC7F30A00C3F30A51029013
:1008E000401A019040286BDAC3F3130040F4801BD8
:1008F0000098924620B10023D2EB030A63EB0B0B66
:1009000001985946C0F14002504600F0B7F906463A
:100910000D4650465946019A00F0CFF910EB0800F9
:100920006141002487EA115284EAE7731A4340D0F8
:10093000009A62B3019A012A4FEA075215DC001BA4
:1009400061EB02014FF0004202EA0752CDE900429A
:10095000001C41F5801132462B4600F049FA03B0E5
:10096000BDE8F08F40462146F9E7001B61EB02012C
:10097000001C41F5801300185B412018A2F50017F8
:1009800047EB030140EAD570B6196D4111E06D08DF
:100990004FEA360645EAC0754FEA0752001B61EB85
:1009A0000201001C41F5801149084FEA300000198E
:1009B000514132462B4603B0BDE8F04F00F009BA72
:1009C0000098012240000023D0EB020263EBE073A9
:1009D000009821464FEAE074B8EB000061EB040197
:1009E000E9E783F000435BE781F0004158E72DE938
:1009F000FE4F81EA030404F0004421F0004100941A
:100A00004FF0000B23F0004350EA01045ED052EA9D
:100A100003045BD0C3F30A54C1F30A552C44A4F277
:100A2000F3340194A0FB0254C1F3130141F480118B
:100A3000C3F3130343F4801301FB024400FB034E92
:100A4000840A970A44EA815447EA8357A4FB07685B
:100A500002958D0A05FB07854FEA932C04FB0C5485
:100A60002705029D4FEA065847EA1637B5EB0805F9
:100A70006EEB070C870E920E47EA811742EA83124B
:100A8000A7FB0201B6EB0B0164EB00042B0D43EA5C
:100A90000C335E1844EB1C50DA465146E7FB02016A
:100AA000C5F313044FEA0B3343EA14534FEA0432FD
:100AB000019C43EA0603A4F10C040294009CCDE9D6
:100AC00000B400F095F903B0BDE8F08F00200146B6
:100AD000F9E72DE9F04D81EA030404F0004B21F021
:100AE000004514464FF0000A23F0004150EA050289
:100AF00020D054EA01021DD0C5F30A570246C5F3BF
:100B00001303C1F31300C1F30A5640F4801543F4F4
:100B10008013A7EB0608101BD64608F2FD3873EBCE
:100B2000050002D308F1010801E092185B41B8F119
:100B3000000F03DA00200146BDE8F08D00204FF4DD
:100B40008011064684460EE0171B73EB050705D39C
:100B5000121B63EB050306434CEA010C49084FEAFC
:100B6000300092185B4150EA0107EDD152EA0300D0
:100B700012D082EA040083EA0501084305D0101B65
:100B8000AB4106D20122002306E000224FF00043D1
:100B900002E06FF0010253101AEB06004CEB085113
:100BA00010EB0A0041EB0B01BDE8F04D00F011B96C
:100BB0000EB5C10F80EAE0700844CA07002140F278
:100BC00033438DE80E000A460B4600F011F903B0DE
:100BD00000BD0EB540F2334102910021CDE9001174
:100BE0000A460B4600F004F903B000BD00F00042D5
:100BF00030F000400AD0C10D01F56071C0F316005D
:100C000042EA0151C20840071143704700200146E3
:100C10007047000030B5041E71F1000404DB4FF092
:100C20000044404264EB0101141E73F1000405DB33
:100C30001C464FF00043524263EB04038B4208BF53
:100C4000824230BD01F0004330B421F0004150EA4F
:100C5000010206D00A0DA2F56072C1F31301002A49
:100C600002DC30BC00207047440F44EAC104C100DC
:100C7000E01830BC00EBC25000F074B8202A04DB4E
:100C8000203A00FA02F1002070479140C2F120039F
:100C900020FA03F3194390407047202A04DB203ADE
:100CA00021FA02F00021704721FA02F3D040C2F18C
:100CB00020029140084319467047202A06DBCB17D3
:100CC000203A41FA02F043EAE07306E041FA02F307
:100CD000D040C2F1200291400843194670473A289B
:100CE00000D2303820F02002412A01D3A2F137008F
:100CF000884201D34FF0FF30704700000268114472
:100D00001378016018467047D16004495161044965
:100D1000116200211161114600F0A0B9FD0C00081C
:100D200051100008426842B1016811F8013B23B13B
:100D3000521EC0E90012184670470121C160881E8A
:100D4000704742685AB1C368016843B983688B42EF
:100D500005D0491E521CC0E90012002070474FF018
:100D6000FF3070470029A8BF7047401C490008BFEA
:100D700020F00100704710B4B0FA80FC00FA0CF0CB
:100D800050EA010404BF10BC704749B1CCF1200403
:100D900021FA04F411FA0CF118BF01212143084390
:100DA000A3EB0C01CB1D4FEA00614FEA102042BFBC
:100DB000002010BC704700EBC35010440029A4BFB2
:100DC00010BC7047401C490008BF20F0010010BC57
:100DD000704710B5141E73F1000408DA401C41F18D
:100DE000000192185B411A4301D120F0010010BDAF
:100DF0002DE9F04D92469B4611B1B1FA81F202E025
:100E0000B0FA80F220329046FFF738FF04460F46D2
:100E100040EA0A0041EA0B0153465A46084313D000
:100E2000114653EA010019D0C8F140025046FFF7BD
:100E300034FF05460E46504659464246FFF71EFF10
:100E4000084305D0012004E020463946BDE8F08D76
:100E50000020054346EAE0762C4337430A986305B1
:100E6000E40AA0EB08000022FD0A44EA47540A30D5
:100E700002D500200146E9E7010510196941DDE9C5
:100E8000084500196941BDE8F04DA2E770B521F0B1
:100E9000004303430CD0C1F30A550024D5EB0405ED
:100EA00064EB0403D617AD1AB34102DB0020014600
:100EB00070BD201841EB025170BD2DE9F04D0023AB
:100EC0001A461B1A8A4103DB00200146BDE8F08D5B
:100ED000C1F30A52C1F3130141F480154FF0000B26
:100EE000D10702D100186D41521E0027044640F27E
:100EF000FF11384601EB620A3E468046024600205A
:100F00004FF48011FFF7C9FEC2197141BB1846EBBF
:100F10000100B4EB030C75EB000C04D3E41A65EB91
:100F2000000517460E46241908F101006D41804660
:100F30003428E3DDF91946EB0600091BA84103D26A
:100F40004FF0FF32134601E0002213461BEB07006F
:100F500046EB0A51BDE8F04DFFF73BBF2DE9FE4FD0
:100F6000C3F30A5701F000450024C1F30A56C3F346
:100F70001303C1F3130143F4801312EB020AA646D4
:100F800041F48011009543EB030CA7F1010B16E02F
:100F9000B0EB0A0061EB0C01071E71F1000707DAE4
:100FA0004FF00008D0EB080085F0004568EB010128
:100FB000171A73EB0107EBD3761E001849415E4503
:100FC000F6DA50EA010209D0CDE900E50022134625
:100FD0000296FFF70DFF03B0BDE8F08F20460099A1
:100FE000F9E70EB540F2334202920022CDE9002229
:100FF0001346FFF7FDFE03B000BD000030B5041E30
:1010000071F1000404DB4FF00044404264EB010145
:10101000141E73F1000405DB1C464FF000435242DE
:1010200063EB0403994208BF904230BD064C074D64
:1010300006E0E06840F0010394E8070098471034A8
:10104000AC42F6D3FFF7A4F82C7300084C730008E9
:10105000C0B24FF4F05100F0B7B900002DE9F34FE2
:101060008BB04FF0000801F10C000C464FF0010B63
:1010700046460DF1080A01906269012101989047E6
:10108000051E2DD0252D2CD0216A8847C0B162695C
:10109000012101989047216A88470028F7D1411E15
:1010A00062690198904700E0761CA1690B98884717
:1010B000216A88470028F7D1E1690B988847DBE768
:1010C000A1690B9888470746A84201D1761CD3E74F
:1010D000E1690B9888477F1C02D1B8F1000F6FD0EF
:1010E00046E1002762693D463946019890472A2823
:1010F00004D162690121019890470125DFF88492AB
:101100006269012101989047A0F130010A290AD2B1
:101110004F45E5DC07EB870100EB4107303FDFD4AB
:1011200045F01005ECE7E90601D46FF000476C28A4
:101130000AD04C2814D0682815D06A280DD07428FD
:101140001CD07A281AD01DE06269012101989047CD
:101150006C2802D045F0040514E045F002050DE0CE
:1011600045F020050AE0626901210198904768284E
:1011700002D045F0080505E045F4006562690121EB
:1011800001989047C4E9015765283DD019DC5828DB
:101190007AD00CDC452837D004DC252826D041281D
:1011A00031D131E046282FD047282CD12CE05B28C4
:1011B00077D0612828D063287CD0642823D15AE0D6
:1011C000D0E06F2848D008DC66281DD067281BD0E7
:1011D000692821D06E2816D127E0702845D07328C1
:1011E00068D0752847D078280DD14DE0A1690B98BB
:1011F0008847054625283FF469AFE1690B98884781
:101200006D1C3FF46AAFB3E023466A466FF00100FD
:101210000B99FFF729FA9EE045F040006060A807AF
:1012200023464FF0000236D43EE0E8077FF447AF94
:101230002068011D21600068290501D506701BE7A3
:10124000290701D5068017E7A90703D5F117C0E9DB
:10125000006111E706600FE745F040006060A807F5
:1012600023464FF0080216D41EE040F60E0125EA90
:101270000100606016E045F040006060A80723466A
:101280004FF00A0207D40FE045F040006060A80765
:1012900008D5234610226FF001000B99AFF30080B0
:1012A00059E007E0234610226FF001000B99FFF789
:1012B00031F850E04FF000094F464B46632802D00A
:1012C0005B2806D040E0E80601D40120A060012799
:1012D0003AE062690121019890475E2805D14FF0FC
:1012E00001096269494601989047216939B900218D
:1012F0000A46534643F82120491C0829FADBB0B3BB
:10130000216969B9C11700EBD16253110AEB83015E
:1013100022F01F02821A01200B68904003430B60E9
:1013200062690121019890475D28E8D1B9F1000F69
:1013300009D00020514651F82020D24341F8202006
:10134000401C0828F7DB02AB224600976FF0010033
:101350000B99FFF785F800280CDA401C08D1BBF187
:10136000000F05D04FF0FF300DB0BDE8F08FFFE764
:101370004046F9E7E90701D108F1010806444FF0BA
:10138000000B79E6CCCCCC0C70B5C1F30A5201F05D
:1013900000450024C1F3130140F2FF3341F48011F2
:1013A0009A4201DA002070BD40F233439A42A2F221
:1013B000334203DC5242FFF770FC00E090402C43C4
:1013C000F1D0404270BD00007F2801D9002208E022
:1013D000064A02EB5002C007127800D1120902F04F
:1013E0000F0201209040084070470000A0720008E2
:1013F00070B58C1810F8015B15F0070301D110F8D7
:10140000013B2A1106D110F8012B03E010F8016B03
:1014100001F8016B5B1EF9D12B0705D40023521E86
:101420000DD401F8013BFAE710F8013BCB1A921CEE
:1014300003E013F8015B01F8015B521EF9D5A142EC
:10144000D8D3002070BDFEE77047000010B510EE45
:10145000100AFFF7CBFB9FED081B53EC112BFFF796
:10146000C6FA9FED071B53EC112BFFF732FBFFF77A
:10147000E9FB00EE100A10BD182D4454FB21094071
:101480000000000000806640704700002DE9FF4F1B
:101490008FB06423C822574901F060FB56A155481C
:1014A000FEF702FF099056A15248FEF7FDFE0E908E
:1014B0000998FEF70BFF544E2D25741F06F11707F0
:1014C000A6F1010806F1130906F1050AA6F1030BBE
:1014D000022829D9E31CCDE9023904F11000011DCD
:1014E000CDF81080CDE90710CDE90576CDE900BA39
:1014F0009B1E5A1E45A10998FEF7F0FE207900B9FF
:101500002571607900B96571607A00B96572207AD9
:1015100000B92572219894ED050A80ED000A209803
:1015200094ED040A80ED000A0E98FEF7CFFE022823
:1015300058D9354B0DF1280C0933991E03F11A02C5
:10154000081F8CE80F001C30011FCDE90810213A5C
:10155000531ECDE90632CDE90476CDE90298CDE9F6
:1015600000BA931FD21F36490E98FEF7B7FE2079B6
:1015700000B92571607900B96571607A00B965724A
:10158000207A00B9257294ED060A2E4810EE101A42
:10159000814227DDE169814224DD04F08DFD84ED87
:1015A0000C0B94ED070A04F087FD84ED0E0B1098E8
:1015B000217801701198617801701298A1780170FA
:1015C0001F98A17901701C9894ED0C0B80ED000B15
:1015D0001D9894ED0E0B80ED000B1E9894ED090AFA
:1015E00080ED000A13B04FF40071BDE8F04F0148E0
:1015F000FEF74FBE04040020244750524D432C00F8
:101600002447504747412C003501002024475052C1
:101610004D432C2532686864253268686425326839
:1016200068642E253368642C25632C25662C25637D
:101630002C25662C25632C25662C256600000000D1
:10164000E07200080000C84270B52DED0C8BB0EEC2
:10165000418AF0EE408A9FED4CCA31EEE00A04F078
:10166000EBFD10EE105A38EE680A04F0E5FD10EEBE
:10167000104A2846FFF7BAFA9FED44AB53EC1A2BF9
:10168000FFF7B5F941EC100B03F026FC9FED41BBD1
:10169000B0EE4B1AF0EE6B1A02F0F6FDB0EE409A87
:1016A000F0EE609AB0EE480A04F0C6FD10EE100AA3
:1016B000FFF79CFA41EC100B02F0FEFCB0EE40DAB2
:1016C000F0EE60DAB0EE680A04F0B6FD10EE100A33
:1016D000FFF78CFA41EC100B02F0EEFCB0EE401A72
:1016E000F0EE601A53EC1D2B51EC110BFFF77FF954
:1016F00053EC192BFFF77BF941EC180B2046FFF751
:1017000075FA53EC1A2BFFF772F941EC100B03F04A
:10171000E3FBB0EE4B1AF0EE6B1A02F0B5FD53ECA2
:10172000182B51EC100BFFF7BBF8FFF78BFA0446B0
:10173000FFF75CFA9FED191B53EC112BFFF754F9DF
:1017400041EC100B03F02CFCB0EE408AF0EE608A06
:101750002046FFF74BFA41EC100B03F021FCB0EEF2
:10176000481AF0EE681A02F0AFFB53EC1B2B51EC59
:10177000100BFFF73CF9FFF765FA00EE100A20EEB8
:101780000C0ABDEC0C8B70BD706DC24A00000000ED
:101790000000E03F000000000000004000000000EA
:1017A0000000F03F70B52DED068BB0EE409AF0EEE4
:1017B000608A9FED8C0A81EE008AB0EE610AFFF725
:1017C00045FE10EE105AB0EE490A04F035FD10EE59
:1017D000104AB0EE680A04F02FFD10EE106A18EE01
:1017E000100AFFF703FA41EC100B02F065FCB0EEB3
:1017F000401AF0EE601AB0EE419AF0EE619A20467F
:10180000FFF7F4F941EC100B03F066FB53EC192BD6
:1018100051EC100BFFF7EBF8FFF714FA08EE900A03
:101820002846FFF7E3F941EC100B02F045FCB0EE5F
:10183000409AF0EE609A18EE100AFFF7D7F941ECE3
:10184000100B03F049FBB0EE40AAF0EE60AA204670
:10185000FFF7CCF941EC100B02F02EFC53EC1A2BE5
:1018600051EC100BFFF7C3F853EC192BFFF7BFF83F
:10187000FFF7E8F900EE100A38EE800A10EE100AC1
:10188000FFF7B4F941EC100B02F002F851EC100B29
:10189000FFF7D8F908EE900A2046FFF7A7F941ECC8
:1018A000100B02F009FCB0EE409AF0EE609A18EED0
:1018B000100AFFF79BF941EC100B03F00DFBB0EEA3
:1018C00040AAF0EE60AA2846FFF790F941EC100B11
:1018D00003F002FBB0EE401AF0EE601A53EC1A2B44
:1018E00051EC110BFFF783F853EC192BFFF77FF83E
:1018F000FFF7A8F9054618EE900AFFF777F941ECD3
:10190000100B03F0E9FAB0EE409AF0EE609A204630
:10191000FFF76CF941EC100B03F0DEFA53EC192BD6
:1019200051EC100BFFF763F841EC190B18EE100A9D
:10193000FFF75CF941EC100B02F0BEFB53EC192BE6
:1019400051EC100BFFF74DF8FFF77CF9FFF74EF95C
:1019500041EC190B2846FFF749F941EC100BB0EEAA
:10196000491AF0EE691A02F0AFFAB0EE401AF0EE42
:10197000601AB0EE419AF0EE619A3046FFF736F900
:1019800053EC192BFEF78CFFFFF75CF9FFF72EF9EC
:101990009FED151B53EC112BFEF782FF41EC100B52
:1019A0009FED131B02F0ECFB9FED131B51EC100B92
:1019B00053EC112BFFF715F8FFF744F908EE100A66
:1019C000B0EE680A01F0B0FDF0EE408AB0EE480AD1
:1019D00001F0AAFDF0EE400AB0EE680ABDEC068BFD
:1019E00070BD0000706DC24AD221337F7CD9224085
:1019F000182D4454FB211940182D4454FB21094053
:101A000090ED1D0A704790ED1E0A704770B50446B0
:101A100000F0EAF80546601C02D00448007804444F
:101A200000F0E2F8401BA042FAD370BD7001002024
:101A30002DE9F84F00224FF0010803254FF00F0E5B
:101A40000B6808FA02F42340A3426ED14E68012EBF
:101A500005D0022E03D0112E01D0122E12D186688D
:101A60004FEA420C05FA0CF7BE43CF6807FA0CF7B1
:101A7000374387604668A6430C79C4F3001494404A
:101A800034434460C668570005FA07FC8C6826EAB0
:101A90000C06BC403443C4604C68022C01D0122CAC
:101AA00013D1D40800EB8404A346D4F82090540743
:101AB0004FEAD46A0EFA0AF629EA06090E6906FA0E
:101AC0000AF646EA0906CBF8206006680C7926EA91
:101AD0000C0604F00304BC40344304604C68E4008A
:101AE00065D5364C266846F480462660246822F088
:101AF000030604F480440094314C3444A446D4F8E2
:101B000008489607370F0EFA07F6B4432D4EB04239
:101B100001D1002624E02C4EB04201D101261FE065
:101B20002A4EB04202D102261AE040E0284EB042CE
:101B300001D1032614E0274EB04201D104260FE064
:101B4000254EB04201D105260AE0244EB04201D113
:101B5000062605E0224EB04201D1072600E0082605
:101B6000BE402643CCF808681E4E34684F689C433C
:101B7000FF0300D51C4334601A4C241D26684F68AF
:101B80009E43BF0300D51E432660164E08363468B8
:101B90004F689C43FF0200D51C433460114E0C3645
:101BA00034684F689C43BF0200D51C433460521C0C
:101BB000102AFFF445AFBDE8F88F0000443802401A
:101BC00000300140000002400004024000080240D2
:101BD000000C0240001002400014024000180240B5
:101BE000001C0240003C0140014880687047000032
:101BF0007001002070B5040025D094F83D00002548
:101C000020B984F83C50204600F0D2FB242084F810
:101C10003D002068016821F0010101602068016831
:101C200041F4004101602068016821F40041016035
:101C300000F018FD4D4A6168914201D84C4900E01E
:101C40004C49884201D2012070BD4B492368B0FB4A
:101C5000F1F15E6826F03F060E435E6063689342D2
:101C600006D94FF4967359434FF47A73B1FBF3F1ED
:101C70002368491C1E6A26F03F06314319626168D9
:101C8000914210D84900401EB0FBF1F2521CC2F341
:101C90000B02042A01D2042022E0B0FBF1F0401C28
:101CA000C0F30B001CE0A268F2B301EBC10303EB2D
:101CB0000116431EB3FBF6F35B1C43F480431B0584
:101CC00049D092B301EBC10202EB0111401EB0FBFF
:101CD000F1F0401CC0F30B0040F4804040F40040A1
:101CE0002168CA694CF6FF739A431043C861D4E96E
:101CF000071001432068026822F0C002114301600E
:101D0000D4E9030101432068826848F2FF339A4313
:101D100011438160D4E9050108432168CA6822F0B3
:101D2000FF021043C86001E00EE016E02068016881
:101D300041F0010101602564202084F83D00256305
:101D400084F83E50002070BD01EB4106431EB3FBFA
:101D5000F6F35B1CB3E70120C2E701EB4101401E33
:101D6000B0FBF1F0401CC0F30B00B7E7A086010008
:101D700080841E0000093D0040420F002DE9F84F0D
:101D80001F4690468A460446DDF82890FFF72CFF50
:101D9000054694F83D00202875D1192301226C498D
:101DA0002046009501F06AF90028F5D194F83C002E
:101DB000012868D0012084F83C0020680168C90728
:101DC00003D1016841F0010101602068016821F43C
:101DD00000610160222084F83D00102084F83E005C
:101DE00000262664C4F824806785608D20855948C4
:101DF000E0622B464A465146204600F083FF002809
:101E000078D1208D544F68B1012814D00228206861
:101E1000016816D041F480610160206841698069E1
:101E2000009087E02068416981690091016841F470
:101E3000007101607EE02068016821F4806101602A
:101E4000F0E721F4806101602068016841F40061DD
:101E5000E2E7032848D801280AD0022814D04B46CC
:101E6000002239462046009501F008F9D8BB27E04A
:101E70002A464946204601F080F9A0BB2068006947
:101E8000616A08704DE061E04B4600223946204609
:101E9000009501F0F3F830BB2068016841F400714F
:101EA000016020680069616A0870606A401C6062B5
:101EB000218D491E2185618D491E618521682EE095
:101EC0002068016821F48061016020680069616A0E
:101ED0000870606A401C6062208D401E2085608D05
:101EE000401E6085D0E705E02A464946204601F0BD
:101EF00044F910B10120BDE8F88F20680069616ADB
:101F00000870606A401C6062218D491E2185618DC8
:101F1000491E618521684A69D24352070AD409697A
:101F20000170606A401C6062208D401E2085608DBB
:101F3000401E6085208D00288BD1202084F83D0034
:101F400084F83E6084F83C600020D4E70220D2E7A9
:101F5000020010000000FFFF040001002DE9F84F0F
:101F60001F4690468A460446DDF82890FFF73CFE5F
:101F7000054694F83D0020287FD1192301224049CD
:101F80002046009501F07AF8002876D194F83C00BC
:101F9000012872D0012084F83C0020680168C9073C
:101FA00003D1016841F0010101602068016821F45A
:101FB00000610160212084F83D00102084F83E007B
:101FC00000262664C4F824806785608D20852D480E
:101FD000E0622B464A465146204600F009FF90B980
:101FE000206841698069009036E02A4649462046CB
:101FF00001F0F6F850B1206C042804D12068016883
:1020000041F4007101600120BDE8F88F606A216829
:1020100000780861606A401C6062618D491E6185BC
:10202000218D491E89B2218522685369DB435B07F4
:102030000BD451B100781061606A401C6062608D01
:10204000401E6085208D401E20852A464946204638
:1020500000F0EEFF0028CED1208D0028C5D154F825
:102060003D0B016841F400710160202004F81E0955
:10207000E67766770020C7E7FFE70220C4E70000A5
:10208000020010000000FFFF2DE9FF4F83B09A46C9
:10209000DDE9119793460446DDF84080FFF7A4FD83
:1020A000054694F83D00202870D11923012271497A
:1020B0002046009500F0E2FF0028F5D194F83C009E
:1020C000012863D0012084F83C0020680168C9071A
:1020D00003D1016841F0010101602068016821F429
:1020E00000610160222084F83D00402084F83E0019
:1020F00000262664C4F82480A4F82A90608D2085E8
:102100005D48E062CDE9007553465A462046049981
:1021100000F0BCFE00287CD1208DD0B1012821D058
:102120000228206824D0416980690090208D03280E
:1021300069D801282BD0514902283B464FF00002B4
:10214000009559D08846204600F098FF002860D1BD
:102150003CE02068416981690091016841F40071A7
:10216000016077E02068016821F480610160F0E798
:10217000016821F4806101602068016841F4006118
:102180000160206841698069009063E06FE02A4641
:102190003946204600F0F1FF98BB20680069616A6B
:1021A00008704EE02068016841F400710160206809
:1021B0000069616A0870606A401C6062218D491E76
:1021C0002185618D491E6185216838E0206801689C
:1021D00021F48061016020680069616A0870606AAA
:1021E000401C6062208D401E2085608D401E6085F1
:1021F0003B46002241460095204600F03FFF00B9D3
:10220000D0E706E0FFE72A463946204600F0B5FF52
:1022100018B1012007B0BDE8F08F20680069616A3D
:102220000870606A401C6062218D491E2185618DA5
:10223000491E618521684A69D24352070AD4096957
:102240000170606A401C6062208D401E2085608D98
:10225000401E6085208D00287FF468AF202084F820
:102260003D0084F83E6084F83C600020D2E7022004
:10227000D0E70000020010000000FFFF0400010092
:102280002DE9FF4F83B09A46DDE911979346044646
:10229000DDF84080FFF7A8FC054694F83D002028B3
:1022A0007FD11923012240492046009500F0E6FE27
:1022B000002876D194F83C00012872D0012084F8DF
:1022C0003C0020680168C90703D1016841F00101A1
:1022D00001602068016821F400610160212084F818
:1022E0003D00402084F83E0000262664C4F8248087
:1022F000A4F82A90608D20852C48E062CDE9007515
:1023000053465A462046049900F03EFE70B930E02C
:102310002A463946204600F063FF58B1206C042855
:1023200004D12068016841F400710160012007B008
:10233000BDE8F08F606A216800780861606A401C1F
:102340006062218D491E89B22185628D521E62858F
:1023500022685369DB435B070BD469B100781061D5
:10236000606A401C6062208D401E2085608D401E8A
:102370006085208D0028CBD12A463946204600F0C2
:1023800057FE0028CAD154F83D0B016841F4007192
:102390000160202004F81E09E67766770020C6E772
:1023A000FFE70220C3E70000020010000000FFFF6B
:1023B00010B586B0044614216846FDF76AFF13493C
:1023C0002068884220D11248016841F00201016072
:1023D0000068694600F002000590C02000901220BD
:1023E00001900120029003200390042004900948EA
:1023F000FFF71EFB06481030016841F40011016030
:10240000006800F40010059006B010BD00540040B4
:1024100030380240000402400248816802781144CA
:1024200081607047700100200B4810B5016841F4CD
:1024300000710160016841F480610160016841F44C
:1024400080710160032000F061F8002000F006F8C0
:1024500000F024F8002010BD003C024070B50D4D86
:1024600004464FF47A712878B1FBF0F00A49096804
:10247000B1FBF0F000F0F6FA48B9102C07D20022B8
:102480002146501E00F022F800206C6070BD012033
:1024900070BD0000700100207C0100200A4808B5D2
:1024A000016841F480410160006800F480400090C0
:1024B0000548001F016841F080510160006800F08C
:1024C0008050009008BD000044380240F0B40E4B2C
:1024D0001B680C46C3F30223C3F10705042D00D982
:1024E0000425191D072901D2002300E0DB1E012667
:1024F00006FA05F1491E214099409E40761E16407D
:102500003143F0BC01F0B2B90CED00E0064900F037
:10251000070208684FF6FF03184040EA0220034A0A
:1025200010430860704700000CED00E00000FA0561
:102530002DE9F0470E46050065D0DFF81481D8F884
:102540000000F7B200F00F00B04207D288F8007028
:10255000D8F8000000F00F00B04254D128683D4C7C
:10256000810712D5400703D5206840F4E050206071
:102570002878000703D5206840F460402060206878
:10258000A96820F0F000084320602878C0072DD00B
:10259000304968680839012812D0022813D003286E
:1025A00011D00968890700292DDA216821F003017B
:1025B00001432160FFF718FB814641F2883A0EE0A3
:1025C00009688903EFE709688901ECE7FFF70CFB6D
:1025D000A0EB0901514502D90320BDE8F08720682E
:1025E000696800F00C00B0EB810FEFD1D8F8001053
:1025F000404601F00F01B14207D90770006800F0B2
:102600000F00B04201D00120E7E72878400705D548
:102610002068E96820F4E05008432060287800072B
:1026200006D52068296920F4604040EAC100206096
:1026300000F038F82168084AC1F30311515CC84022
:102640000649086006480068FFF708FF0020C4E755
:10265000003C024008380240EC6F00087C0100207A
:10266000740100200448054900680968044AC1F360
:102670008221515CC84070477C010020083802402C
:10268000FC6F00080448054900680968044AC1F362
:102690004231515CC84070477C010020083802403C
:1026A000FC6F0008154810B5006810F00C021448C3
:1026B00013D01449042A0FD0082A0ED10F4C241F1E
:1026C0002268236802F03F025B0207D52068C0F34E
:1026D0008810A0FB010106E0084610BD2168C1F387
:1026E0008811A1FB00010023FDF76AFD2168C1F3F9
:1026F0000141491C4900B0FBF1F010BD083802400F
:102700000024F40040787D012DE9F84F04006ED0DC
:102710002078DFF83C93C007A9F104054AD009F1FD
:1027200004000168C1F38101012908D00068C0F3E9
:10273000810002280AD1D9F80000400206D5286895
:10274000800337D560680028E1D033E06068B0F5D9
:10275000803F10D0B0F5A02F286810D020F4803032
:102760002860286820F4802028606068A8B1FFF7FE
:102770003BFA06460DE0286840F48030F4E740F468
:1027800080202860F7E700BFFFF72EFA801B64283F
:1027900073D828688003F7D50CE0FFF725FA0646C2
:1027A00005E000BFFFF720FA801B6428F0D82868F6
:1027B0008003F7D42078DFF89C8280074FF0000A6E
:1027C0003ED5A348001D016811F00C0F08D0006829
:1027D000C0F3810002280BD1D9F80000400207D4D1
:1027E0002868800716D5E068012800D112E02BE1A7
:1027F000E068B8B10120C8F80000FFF7F5F9064617
:1028000005E000BFFFF7F0F9801B0228C0D8286858
:102810008007F7D52868216920F0F80040EAC10058
:1028200028600DE0C8F800A0FFF7DEF9064604E0D6
:10283000FFF7DAF9801B02281FD828688007F7D431
:102840002078000722D5824E83486169703671B1C5
:1028500001210160FFF7C8F9074604E0FFF7C4F95A
:10286000C01B022809D830688007F7D50EE0C0F8F1
:1028700000A0FFF7B9F9074605E082E0FFF7B4F9D9
:10288000C01B02287DD830688007F7D42078400725
:1028900068D5DFF8BCB100270BF13C0BDBF800007A
:1028A000C0000BD4DBF8001041F08051CBF80010D1
:1028B000DBF80000012700F080500090674E306880
:1028C000C00510D4306840F480703060FFF78CF998
:1028D000009005E0FFF788F90099401A022850D8C7
:1028E0003068C005F6D55A4EA0686C3601280FD066
:1028F0000528306810D020F001003060306820F0EA
:1029000004003060A068B8B1FFF76EF900900FE0E6
:10291000306840F00100F4E740F004003060F7E771
:10292000FFF762F90099411A41F28830814266D876
:1029300030688007F4D50EE0FFF756F9009007E005
:10294000FFF752F90099411A41F28830814256D876
:1029500030688007F4D42FB1DBF8001021F08051EB
:10296000CBF80010A069C8B33949091D0968C1F343
:10297000810102294AD00228504607D0C8F86000D9
:1029800000E03CE0FFF730F904463BE04746C8F87A
:102990006000FFF729F9064605E000BFFFF724F9BC
:1029A000801B02282BD828688001F7D4D4E90701BE
:1029B0000843A16A2A4A490802EB0141626A41EAD6
:1029C0008211084394F82C1040EA0161C9F8001004
:1029D00001203866FFF708F9044606E036E000BF3C
:1029E000FFF702F9001B022809D828688001F7D5F3
:1029F0002CE000BFFFF7F8F8001B022802D90320E3
:102A0000BDE8F88F28688001F4D41FE00128F7D0D2
:102A1000D9F80000E26900F48001914214D1226AE1
:102A200000F03F0191420FD147F6C071626A014048
:102A3000914209D1A26A00F44031914204D1E16A85
:102A400000F07060884201D00120D9E70020D7E76C
:102A50000438024000004742800E474200700040A8
:102A60000000FFFF10B5401EB0F1807F01D30120B0
:102A700010BD4FF0E02460610F21601700F0F6FEFA
:102A80000020A06107202061002010BD70B5040067
:102A900004D094F83900002510B106E0012070BD83
:102AA00084F83850204600F023F8242084F83900B8
:102AB0002068C16821F40051C160204600F09CFDEF
:102AC0002068016921F4904101612068416921F089
:102AD0002A0141612068C16841F40051C160E56389
:102AE000202084F8390084F83A00002070BD0000EE
:102AF00010B586B0044614216846FDF7CAFB144998
:102B00002068884221D113480021026842F0100257
:102B10000260006800F0100005900E48143802684A
:102B200042F001020260006800F0010005904FF4DD
:102B3000C06000900220CDE901010320039007202E
:102B4000049069460448FEF773FF06B010BD00000C
:102B50000010014044380240000002402DE9F843D3
:102B6000044690F83A00994616460D46202852D160
:102B7000BDB1B6B194F8380001284CD0012084F8DA
:102B800038000027E763222084F83A002C34FFF74E
:102B90002BF824F8026B804624F80A6B04F8387985
:102BA00031E00120BDE8F883E08D401EE085A0689B
:102BB0004346B0F5805F4FF000024FF02001204601
:102BC000CDF8009004D000F0ABFD98B10320E9E708
:102BD00000F0A6FD0028F9D120690028206840688F
:102BE00003D0C1B225F8011B0DE0C0F3080125F8A0
:102BF000021B08E0206900282068406801D000F02E
:102C00007F0005F8010BE08D0028CDD1202084F84D
:102C10003A000020C6E70220C4E72DE9F843044645
:102C200090F839001F4616460D46202850D1B5B100
:102C3000AEB194F8380001284AD0012084F8380059
:102C40004FF00008C4F83C80212084F83900FEF7DA
:102C5000CBFFA6848146E68484F8388026E00120F4
:102C6000BDE8F883E08C401EE084A0684B46B0F5D8
:102C7000805F4FF000024FF080012046009703D0A4
:102C800000F04EFDE8B90DE000F04AFDC8B9288813
:102C90002168C0F308004860206908B16D1C05E098
:102CA000AD1C03E0216815F8010B4860E08C00289A
:102CB000D8D14B46002240212046009700F030FD3D
:102CC00008B10320CCE7202084F839000020C7E7B2
:102CD0000220C5E7FEE701684A69D24352050FD4D6
:102CE0006FF480624A61002140F8301F2022427355
:102CF0008173026942F0040202610173012070478E
:102D0000002070472DE9F84F0446C06A1E469346DE
:102D10000D4621680A6842F480620A60082807D0DC
:102D2000012805D010F5803F02D0206B112804D176
:102D30002068016841F4807101604FF001195B4621
:102D4000002249462046009600F098F94FF400789A
:102D500040B120680068C00501D5C4F84080032058
:102D6000BDE8F88F2069DFF884A0B0F5804F0FD060
:102D70000620216800EAD51747F0F00008613346C5
:102D80005A460AF10601204600F0ACF958BB03E0B0
:102D9000E8B240F001001CE02168E8B20861334667
:102DA0005A465146204600F09DF9E0B92068416935
:102DB00081690091016841F4807101605B460022E5
:102DC00049462046009600F059F90028C1D147F045
:102DD000F1002168086133465A465146204600F00A
:102DE00081F90028BCD00120BAE7000002000100F0
:102DF000F8B50446C06A1E460D461746082807D097
:102E0000012805D010F5803F02D0206B122804D194
:102E10002068016841F480710160134600224FF080
:102E200001112046009600F029F940B120680068A1
:102E3000C00502D54FF4007020640320F8BD20695E
:102E4000B0F5804F0ED00620216800EAD51040F082
:102E5000F000086133463A460B49204600F042F93B
:102E600078B902E005F0FE0000E0E8B221680861F0
:102E7000054933463A46891F204600F033F90028B9
:102E8000DCD00120F8BD0000080001002DE9F84F5A
:102E90000446006889460B9D01689846174641F430
:102EA000806101602068016841F4807101600095D3
:102EB0004FF0011B0022594620460A9B00F0DEF825
:102EC0004FF4007A40B120680068C00501D5C4F80D
:102ED00040A00320BDE8F88F216809F0FE000861DA
:102EE0002B46284920460A9A00F0FCF8F0BB2068DF
:102EF0004169806900902A4620460A9900F070F9DD
:102F000040B1206C04283AD12068016841F4007176
:102F1000016034E0FEB2B8F1010F09D02168380A2F
:102F200008612A4620460A9900F05AF90028E8D19B
:102F3000206806612A4620460A9900F051F90028C7
:102F4000DFD12068016841F48071016000950022A2
:102F5000594620460A9B00F091F80028B3D1216819
:102F600009F0FF0040F00100086100E007E02B4697
:102F7000044920460A9A00F0B5F80028AAD001209A
:102F8000A8E70000020001002DE9F84304460068AC
:102F90000D46DDE9089701689846164641F48071B0
:102FA00001604B4600224FF001112046009700F0CF
:102FB00065F848B120680068C00502D54FF400707C
:102FC00020640320BDE8F883216805F0FE00086155
:102FD0003B464A461549204600F084F888B92068E7
:102FE0004169806900903A464946204600F0F8F869
:102FF00048B1206C042804D12068016841F40071B4
:1030000001600120DEE7F5B2B8F1010F09D02168B7
:10301000300A08613A464946204600F0E1F80028A7
:10302000E7D1206805610020CCE700000200010024
:1030300070B516460D4604460DE02046FFF74BFEE0
:1030400008B1012070BD681C05D0FEF7CDFD801BC6
:10305000A84207D835B120684069C0434007ECD486
:10306000002070BD002044F8300F20216173A07350
:10307000216941F0200121612073E2E72DE9F04749
:103080001E4690460D460446C1F30747DDF82090E2
:1030900008E0701C06D0FEF7A7FDA0EB0900B042C7
:1030A0000FD876B12068012F18D0806925EA00007A
:1030B0000004000C14D000214145EAD00020BDE8F6
:1030C000F087002044F8300F20216173A07321693C
:1030D00041F02001216120730120F0E74069E5E71C
:1030E0000121E9E72DE9F0479A4691460E4604464C
:1030F00000254FF02008C1F3074725E0206840690C
:10310000C043400514D42068016841F40071016097
:1031100021686FF480604861256384F83D8084F8FD
:103120003E50206C40F00400206484F83C501FE0C6
:10313000B9F1FF3F08D0FEF757FDA0EB0A01494562
:103140000CD8B9F1000F09D02068012F13D0806985
:1031500026EA00000004000C0BD0CFE744F8305FF3
:1031600084F80D80A573206940F02000206125734C
:103170000120BDE8F0874069EAE72DE9F04100252C
:1031800090460E460446202717E04069C043C0061B
:103190000CD454F8301B6FF01000486144F81059FB
:1031A0006777A577206A2062257717E0FEF71CFD78
:1031B000A0EB0800B04208D83EB120684169C9437D
:1031C0004906E2D40020BDE8F08144F8305F67731F
:1031D000A573206940F02000206125730120F2E7EB
:1031E00070B516460D4604460DE02046FFF773FD08
:1031F00008B1012070BD681C05D0FEF7F5FC801BEE
:10320000A84207D835B120684069C0430006ECD415
:10321000002070BD002044F8300F20216173A0739E
:10322000216941F0200121612073E2E710B5DFED53
:103230000B1A2DED028BB0EE408AF0EE610AB0EE73
:10324000611AFEF701FAB5EEC08AF1EE10FA01D26A
:10325000B1EE400ABDEC028B10BD00000000000082
:1032600010B5DFED0C1A2DED028BB0EE408AB0EEFA
:10327000610AF0EE480AB0EE611AFEF7E5F9B5EE24
:10328000C08AF1EE10FA01D2B1EE400ABDEC028B19
:1032900010BD000000000000094808B5016841F0B9
:1032A00001010160016801F001010091016841F034
:1032B00002010160006800F00200009008BD0000FB
:1032C000303802400D4810B50B4901600C4941608F
:1032D00000214FF480428160C0E9031241618161A5
:1032E000C1610162FEF786FC002803D0BDE81040F2
:1032F000FEF7CAB810BD0000005400407003002063
:10330000A08601000C4810B50A4901604FF416511F
:103310004160002181600C22C160C0E9041281611A
:10332000C161FFF7B3FB002803D0BDE81040FEF7F2
:10333000ABB810BD00100140C4030020FEE7000040
:1033400010B5B0EE601A2DED028BB0EE408A9FED05
:10335000070AF0EE400A00F07BF8B0EE481ABDEC28
:10336000028BBDE8104000F079B8000000000000BA
:10337000704700002DE9F04F334961EEA11A21EEAC
:10338000011A51F80C5B51F80C6B03EE105A51E91D
:103390000592934651E90227BA46B1E89810D1E95F
:1033A000008180ED003A03EE109A80ED013A03EEC1
:1033B00010BA80ED023A03EE106A80ED033AC0EDD8
:1033C0001B6A80ED1C7AC0ED154A80ED164A03EEAB
:1033D000102AC0ED143A80ED043A03EE10AA80EDF5
:1033E000053A03EE103A80ED063A03EE104A80EDFE
:1033F000073A03EE107A80ED083A03EE10CA80ED2A
:10340000093A03EE108A80ED0A3A03EE101A80EDB5
:103410000B3AC0ED0C1AC0ED0D5A80ED0E6AC0EDEE
:103420000F1A80ED101AC0ED112A80ED125A80EDAE
:10343000131A80ED1D0AC0ED1E0A80ED1F2A5C30B4
:10344000C0EC047ABDE8F08FBC6F00087047000044
:10345000DFED011AFEF7A6B90000B442DFED011A54
:10346000FEF7A0B90000000030B504462DED048B36
:10347000B0EE409AB0EE608A90ED1F0A97B078EEF9
:10348000408AB0EE680A03F0D9FC2046B0EE680A24
:1034900003F0FAFC04F15C0084ED149A12AA04F122
:1034A0007401054603F03AFB14AA04F1500104F13B
:1034B0006C0003F073FB6A4614A912A802F06EFABE
:1034C0009DED000A0AAA84ED1D0A9DED010A04F192
:1034D000200184ED1E0A284603F0A0FB06A9284619
:1034E00003F03EFD0EAA06A90AA803F097FB02AA64
:1034F00004F130010EA802F075FA9DED020A84ED88
:10350000080A9DED030A84ED090A9DED040A84ED85
:103510000A0A9DED050A84ED0B0A84ED1F8A17B097
:10352000BDEC048B30BD000010B510EE100AFDF7A5
:103530005DFB9FED081B53EC112BFDF758FA9FED37
:10354000071B53EC112BFDF7C4FAFDF77BFB00EED4
:10355000100A10BD0000000000806640182D445481
:10356000FB2109407047FEF757BF000010B592B02D
:1035700030216846FCF78DFE14210CA8FCF789FE6B
:1035800014480024016841F080510160006800F097
:10359000805011901048016841F48041016000683A
:1035A000069400F4804011900220009001200390C6
:1035B000102004906846FFF7A7F80F20CDE90C040F
:1035C0000E940F9400210CA81094FEF7B1FF12B0D6
:1035D00010BD0000403802400070004005480168FE
:1035E00041F47001016003494FF0006080390860C8
:1035F0007047000088ED00E02DE9F04104460068C6
:103600000169E26821F44051114301612169A06818
:10361000E26908436169114308432168CA6849F2B5
:103620000C639A430243CA6020684169A26921F48D
:10363000407111434161E069192764253226B0F5D4
:10364000004F354A354920684FF0000806D08842BF
:1036500001D0904236D1FFF715F835E0884201D00D
:10366000904202D1FFF70EF801E0FEF7FBFF616820
:103670004A18A0FB070148EB0803FCF7A1FD01462F
:10368000B0FBF5F00201B1FBF5F06FF01803584301
:1036900001EB800006EBC000B0FBF5F000F0F80095
:1036A00002EB4002B1FBF5F0584301EB800006EB62
:1036B000C000B0FBF5F000F00700216810448860FE
:1036C000BDE8F081FEF7CEFF61688B0F8A00A0FB9A
:1036D0000701FCF775FD0146B0FBF5F06FF018022D
:1036E000504301EB800006EB0010B0FBF5F000F05A
:1036F000F002B1FBF5F002EB0012B1FBF5F06FF058
:103700001803584301EB800006EB0010B0FBF5F006
:1037100000F00F00D1E7000000140140001001404C
:103720002DE9F041984617460E460446069D1DE0D9
:10373000681C1BD02DB1FEF757FAA0EB0800A84279
:1037400014D92068C16821F4D071C1602068416932
:1037500021F001014161202084F8390084F83A0009
:10376000002084F838000320BDE8F081206800685C
:1037700036EA000004D00020B842D9D00020F3E798
:103780000120F9E770B59AB081ED150A0C46C1ED3C
:10379000160A28B190ED000A20EE000A84ED100A06
:1037A00021EE010A04F1740116AA84ED130A0D46F4
:1037B00004F1540003F0AFFB04F120000AAA04F165
:1037C0004001064602F00EF9B0EE000A0EA90AA862
:1037D00002F094FD06AA0EA9304603F01FFA18AABB
:1037E00016A906A803F09AF96A4618A9284602F015
:1037F000D5F89DED000A12AA84ED1D0A9DED010A7F
:1038000006A984ED1E0A204603F008FA02AA3146F2
:1038100012A803F003FA9DED020A84ED080A9DED5B
:10382000030A84ED090A9DED040A84ED0A0A9DED60
:10383000050A84ED0B0A1AB070BDFEE703B40198C7
:103840004100009850EAC12018BF04204A0D18BF5B
:1038500040F0010040F2FF72B2EB515F08BF40F050
:103860000200012808BF052002B070470907090EB1
:10387000002804DB00F1E02080F80014704700F01D
:103880000F0000F1E02080F8141D704700000000D8
:1038900070B5C1482DED020B2DED0E8B82B0119D40
:1038A00025F000449FEDBEDB9FEDBFEB84423EDB85
:1038B000A4F140511098A1F17F6108430FD0BC489A
:1038C000844202DC28D1109830B39DED100B02B079
:1038D000BDEC0E8B02B0BDE8704001F0A1BF9DEDC4
:1038E000100B53EC1D2B51EC100BFDF780F89DEDE8
:1038F000100B41EC180B53EC1E2B51EC100BFDF789
:1039000076F853EC182BFCF7CBFF41EC100B02B010
:10391000BDEC0E8B02B070BD012001F0D5FF02B0EE
:10392000BDEC0E8B02B0BDE8704001F08DBFA14828
:103930009FEDA18B844256DA9DED100BB4F1795FB7
:103940000ADA51EC100BFFF779FF042808BF01F0E9
:103950009BFF9DED100BDAE753EC102B51EC100B95
:10396000FDF745F841EC190B95480621B0EE490AE0
:10397000F0EE690A784401F027FE53EC192B51EC64
:10398000100BFDF734F841EC1A0B8E48B0EE490AE3
:10399000F0EE690A0421784401F016FE53EC192B6D
:1039A00051EC100BFDF723F853EC182BFCF778FFC4
:1039B00041EC100B51EC1A0B53EC102BFDF789F86E
:1039C000CDE900019DED000B53EC102B9DED100B8C
:1039D00051EC100BFDF70BF89DED101B53EC112B68
:1039E000FCF75EFFD2E09DED100B51EC100B02F0E6
:1039F00017FC53EC182BFCF7F7FF9FED730BCDE989
:103A0000000153EC102B9DED000B51EC100BFCF75B
:103A1000EEFF41EC190B6E480621B0EE490AF0EEBC
:103A2000690A784401F0D0FD53EC192B51EC100BCE
:103A3000FCF7DDFF41EC1B0B6648B0EE490AF0EEE7
:103A4000690A0421784401F0BFFD53EC192B51ECB5
:103A5000100BFCF7CCFF53EC182BFCF721FF41ECCB
:103A60001C0B51EC190B03F01FFA41EC180B5A48D0
:103A70009FED5BABA04222DC53EC1C2B51EC1B0BEB
:103A8000FDF727F8CDE900019DED000B51EC180B77
:103A900053EC102BFCF7ABFF53EC182BFCF700FF9B
:103AA00053EC1A2BFCF7A3FF53EC1D2BFCF799FFEB
:103AB00053EC1E2BFCF798FF41EC100B5FE08DEDF3
:103AC000008B002000909DED000B51EC180B53EC87
:103AD000102BFCF7E5FE9DED000B41EC1E0B53ECAB
:103AE000102B51EC100BFCF782FF53EC192BFCF759
:103AF0007BFF53EC1E2BFCF7ECFF41EC190B53EC56
:103B00001C2B51EC1B0BFCF7E4FF41EC1B0B53ECA3
:103B10001A2B51EC190BFCF76AFF53EC1D2BFCF729
:103B200063FF41EC190B53EC1A2B51EC180BFCF70B
:103B30005EFF53EC1B2BFCF75AFF53EC192BFCF7E1
:103B400050FF9DED000B41EC180B53EC1A2B51EC80
:103B5000100BFCF74CFF9FED249B53EC192BFCF74B
:103B600043FF41EC100B51EC180B53EC102BFCF7FE
:103B700038FF53EC192BFCF737FF41EC100B002DED
:103B80003FF7C5AE51EC100B81F0004141EC100B3A
:103B9000BDE60000000000000000F03F0000000053
:103BA000075C143326A6913C182D4454FB21F93FA1
:103BB0000000F07F0000E03F000000000000F03F48
:103BC000903600009E360000000000000000E03F3C
:103BD000E2350000F03500003333EF3F0000000015
:103BE0000000000000000040182D4454FB21E93F74
:103BF00070B59B482DED020B2DED068B079D25F032
:103C00000044A04218DC9748844202DC0AD106989E
:103C100040B19DED060BBDEC068B02B0BDE87040D7
:103C200001F0FEBD002DCCBF9FED8F0B9FED900BE3
:103C3000BDEC068B02B070BD8F48A04215DD8F48E9
:103C4000A042D8BF4FF0FF3458DD9DED060B51EC7C
:103C5000100BFFF7F3FD042808BF01F015FE9DEDE2
:103C6000060BBDEC068B02B070BD9DED060B51EC52
:103C7000100B02F0D5FACDE9060181489FED828B49
:103C8000A0423CDD8248A0421FDD00249FED82ABB4
:103C90009DED060B53EC1A2B51EC100BFCF700FEBC
:103CA0009DED060B41EC190B53EC1A2B51EC100B4C
:103CB000FCF79DFE53EC182BFCF793FE53EC192BED
:103CC000FCF707FFCDE9060149E09DED060B012455
:103CD00053EC182B51EC100BFCF7E2FD9DED060B9D
:103CE00041EC190B53EC182B51EC100BFCF779FE3F
:103CF00053EC192BFCF7EDFECDE906012FE06848E7
:103D0000A0421FDD02249FED689B9DED060B53EC46
:103D1000192B51EC100BFCF76AFE53EC182BFCF737
:103D2000BFFD9DED060B41EC180B53EC192B51EC2C
:103D3000100BFCF756FE53EC182BFCF7CAFECDE92E
:103D400006010CE09DED060B032453EC102B9FEDB8
:103D5000580B51EC100BFCF7BCFECDE906019DEDB4
:103D6000060B53EC102B51EC100BFCF740FE41EC12
:103D7000180B53EC182BFCF73AFE41EC190B4E488C
:103D80000621B0EE490AF0EE690A784401F01CFC05
:103D900053EC182B51EC100BFCF729FE41EC180BDF
:103DA0004648B0EE490AF0EE690A0521784401F070
:103DB0000BFC53EC192B51EC100BFCF718FE41ECEB
:103DC000100B51EC180B53EC102B002C0EDAFCF7F7
:103DD00067FD9DED061B53EC112BFCF708FE9DEDD6
:103DE000061B53EC112BFCF7FFFD35E0FCF758FDEB
:103DF0009DED061B53EC112BFCF7F9FD41EC100B6C
:103E00002F48784400EBC40090ED001B51EC100BE0
:103E100053EC112BFCF7E5FD9DED061B53EC112B2C
:103E2000FCF7DFFD41EC100B2648784400EBC400A2
:103E300090ED001B51EC100B53EC112BFCF7D4FD53
:103E400041EC100B002DA2BFBDEC068B02B070BD83
:103E500051EC100B81F0004141EC100B01E7000028
:103E6000000010440000F07F182D4454FB21F93F5E
:103E7000182D4454FB21F9BF0000DC3F0000203E18
:103E80000000F33F00000000000000000000F03FD1
:103E90000000E63F000000000000000000000040BD
:103EA0000080034000000000000000000000F83F18
:103EB000000000000000F0BF32330000E8320000D4
:103EC000723200002A32000070B56B4E2DED040BEB
:103ED0002DED028B82B0DDF81CC0DDE905235C42CC
:103EE0002CF000411C4341EAD474049D22F00040B0
:103EF000B44205D86C422C4340EAD474B4420BD986
:103F00009DED061B9DED040B02B0BDEC028B04B0D1
:103F1000BDE8704001F08EBCACF14054A4F17F6468
:103F20001C430BD0022404EAAC7444EAD274054367
:103F30009FED538B9FED542B07D015E09DED040BA7
:103F400051EC100B01F072FD42E0002C11BF012C6E
:103F50009DED040B02B0BDEC028B04BF04B070BD3C
:103F6000022C38D0032C3BD00B439FED491B9FED17
:103F70004A0B0AD0B14218D1B04209D121F0804198
:103F800020F08040079105900FE0002A15DA10E03C
:103F9000434B7B44002C08BF93ED000B0DD0012C4C
:103FA00010D0022C17D0032C1AD0B0421DD1002AF9
:103FB00003DAB0EE410AF0EE610A02B0BDEC028B0A
:103FC00004B070BD93ED000B51EC100B81F000417B
:103FD00041EC100BF1E7B0EE480AF0EE680AECE7AE
:103FE000B0EE420AF0EE620AE7E7401A00153C28FC
:103FF000C8BF8DED000B19DCBCF1000FBEBF10F186
:104000003C0F9FED290B8DED000B0FDB9DED060B9B
:1040100053EC102B9DED040B51EC100BFCF759FDEC
:1040200002F0FEF801F002FDCDE90001002C08BF0E
:104030009DED000BC1D0012C10D0022C9FED1C0B6C
:1040400053EC102B9DED000B51EC100B0DD0FCF739
:10405000C8FC53EC182BFCF7C4FCB9E7019880F0BE
:10406000004001909DED000BA7E7FCF7BAFC53EC74
:10407000182BFCF7B9FCABE70000F07F0000000054
:10408000182D4454FB210940182D4454FB2109C02C
:10409000182D4454FB21F9BF182D4454FB21F93F3E
:1040A00012320000000000000000000000000000CC
:1040B000075C143326A6A13C10B52F499FED2C1B9D
:1040C0002DED020B84B0059820F000408842D8BF47
:1040D0009DED040B2DDD2949884209D1049840B992
:1040E0004FF0010001F0F0FB01F0AEFB06B010BD97
:1040F00005DB9DED040B01F093FB06B010BD684697
:104100009DED040B00F08CFF10F0030004BF9DED4B
:10411000021B9DED000B0CD001280ED09DED021B63
:104120009DED000B022817D0012001F0C9FA06B05E
:1041300010BD01F091F906B010BD9DED021B9DED83
:10414000000B012001F0BCFA51EC100B81F0004192
:1041500006B041EC100B10BD01F07EF951EC100BD4
:1041600081F0004106B041EC100B10BD00000000D2
:104170000000000000000000FB21E93F0000F07F8C
:1041800010B52DED040B86B09DED060B10EE100A58
:1041900010EE901A8DED000B002818BF0120084387
:1041A00020F00040C0F17F6000F1E040C00F21D15D
:1041B0009DED080B10EE101A10EE900A8DED000B1D
:1041C000002918BF0121084320F00040C0F17F60A2
:1041D00000F1E040C00F0DD129490798B1EB400F25
:1041E00004BF0698002842D00998400004BF0898F0
:1041F00000283CD09DED080B53EC102B9DED060BD9
:1042000051EC100BFCF7AAFECDE902019DED020B6B
:1042100040F2FF7110EE900A8DED000B31EA105064
:1042200021D00798039900F0004001F00041884236
:1042300019D09DED080B8DED040B9DED020B8DED5E
:10424000000B10EE900A059961F31E0005909DED9C
:10425000041B9DED020B51EC110B53EC102BFCF7E2
:10426000C3FBCDE902019DED020B0AB010BD012098
:1042700001F02AFB0AB0BDE8104001F0E5BA0000E9
:104280000000E0FF000000002DE9F04D2DED040BD3
:104290002DED0E8B96B0DDE92550279CDDF890A022
:1042A00025F0004624F00048BAF1000F14BF0121A8
:1042B000002101EB4502FC4953184A1093422AD3CE
:1042C000002814BF0123002303EB44030B44F749E8
:1042D0008B4220D358EA00019FEDF59B76D0DFF8A2
:1042E000D8B35D4503D1BAF1000F05D188E0BAF12A
:1042F000000F08BF002100D0012101EB450111F59D
:10430000001F08D8002814BF0121002101EB44013F
:1043100011F5001F0BD99DED261B9DED240B16B04A
:10432000BDEC0E8B04B0BDE8F04D01F083BA002760
:10433000002DBCBFE149884521DAE1498845A8BF85
:1043400002271CDAC3451ADCDE4901EB2851142987
:1043500008DDC1F1340220FA02F101FA02F28242D0
:104360000DD108E058B9C1F1140228FA02F101FA9E
:1043700002F2424503D101F00101C1F1020756EA00
:104380000A0124D1002C22DA002D18BF022F01D0FF
:10439000012F0AD0022001F097FA16B0BDEC0E8B67
:1043A00004B0BDE8F04D01F023BA022001F08CFA10
:1043B00001F01EFA51EC100B81F0004141EC100BA2
:1043C00016B0BDEC0E8B04B0BDE8F08D18E09FED8B
:1043D000BEAB9FEDBF8B002871D1B848804522D17C
:1043E00005F1804010F5801008BFBAF1000F07D02A
:1043F000B3450ADC002CA8BF9DED260BE0DA0DE0EA
:10440000B0EE490AF0EE690ADAE7002C06DA9DED13
:10441000260B51EC100B81F000416FE0AE48784460
:1044200090ED000BCCE7D8454DD1002C48DA2EB1E9
:1044300086423AD1BAF1000F42D126E0BAF1000F1C
:1044400013D0022001F040FA01F00EFA8DED020BBC
:104450009DED240B8DED000B10EE900A039961F396
:104460001E0003909DED020BAAE78DED02AB9DEDC2
:10447000240B1AEE901A10EE900A8DED000B61F3EA
:104480001E0003909DED020B9AE78DED028B9DEDD2
:10449000240B18EE901A10EE900A8DED000B61F3CC
:1044A0001E0003909DED020B8AE709DA9DED240BB7
:1044B00051EC190B53EC102BFCF70BFB1EE020E02A
:1044C0009DED240B7CE786421BDAB4F1804F0DD0C2
:1044D000A4F10050B0F1FF5013D1002D11DB9DED80
:1044E000240B51EC100B02F0DFFC07E09DED240BD8
:1044F00053EC102B51EC100B00F0C2BC41EC100B34
:104500005EE79DED240B51EC100B01F089FEBAF132
:10451000000FCDE90E0142D19FED710B46B3A6F11C
:10452000E040B0F17F600CD05E4538D1002D00DA5C
:10453000A7B3022F0CBF01204FF0FF30FCF738FB70
:10454000DCE7002D01DD002C0DDA002D01DD002C53
:104550001FDB002D16DA002C14DB012F08BF9FEDA6
:10456000620B3FF42DAFB0EE4A0AF0EE6A0A27E77D
:10457000022F18BF002D0CD0012F0AD1002DFFF6FD
:104580001FAF06E0002DB8BF002C08DA012F3FF462
:1045900017AFB0EE480AF0EE680A11E71BE0012001
:1045A00000EBE57050EA070115D0791EB0EE498A9C
:1045B000F0EE698A084308BF9FED4D8B4E480025F9
:1045C000804570DD4D494E48884514DDB0420DDB15
:1045D000002C19DB2FE0012001F076F916B0BDECBC
:1045E0000E8B04B0BDE8F04D01F02EB9B34502DCEE
:1045F000002C09DC1FE0864202DA002C1BDA03E003
:104600005E452BDD002C16DD022001F05DF901F086
:104610002BF98DED020B53EC1A2B51EC180BFCF718
:10462000E6F9CDE900010399019861F31E000390BA
:104630009DED020BC4E6022001F046F901F024F9D9
:1046400010EE901A18EE900A8DED020B8DED008B96
:1046500061F31E0003909DED020BB1E69DED0E0B84
:1046600053EC192B51EC100BFCF7BBF99FED260B0B
:10467000CDE9080153EC102B9DED080B51EC100B0C
:10468000FCF7B5F99FED221B53EC112BFCF7ACF9AD
:104690009DED081B53EC112BFCF7A9F99FED1E1B98
:1046A00053EC112B3CE08CE0FFFF1F00FFFF0F00DD
:1046B000000000000000F03F0000F03F0000F07F2D
:1046C0000000404301FCFFFF000000000000F07FFD
:1046D0000000000000000000862D00000000000027
:1046E0000000000000000080000000000000F0FF5B
:1046F000000000000000F0BF0000E0410000F043B7
:10470000FFFFEF3F00000000000000000000D03F6E
:10471000555555555555D53F000000000000E03F68
:10472000FCF762F99DED080B41EC1A0B53EC102BD2
:1047300051EC100BFCF75BF953EC1A2BFCF757F913
:1047400041EC1A0B9FEDFE0B53EC102B9DED080B6B
:1047500051EC100BFCF74BF941EC1B0B9FEDFA0BE6
:1047600051EC1A0B53EC102BFCF741F941EC1A0BEE
:104770009FEDF70B53EC102B9DED080B51EC100B3C
:10478000FCF735F953EC1A2BFCF72BF941EC1A0B1B
:1047900051EC1B0B53EC1A2BFCF782F80690CDE979
:1047A00006519DED060B53EC1B2B51EC100BFCF747
:1047B00018F953EC1A2BFCF717F941EC100B00F029
:1047C000A1B90020B6F5801F0EDA9FEDE30B53EC84
:1047D000102B9DED0E0B51EC100BFCF708F9CDE9F9
:1047E0000E016FF034000E4600EB2650A0F2FF37AA
:1047F000C6F31300DA4940F07F6646F0405688421F
:10480000D8BF002408DDD7498142C8BF012403DC9A
:104810000024A6F580167F1CD348784400EBC40022
:104820000F9690ED00CB9DED0E0B53EC1C2B51EC35
:10483000100BFCF7D6F89DED0E0B41EC1B0B53EC67
:104840001C2B51EC100BFCF72BF841EC100B51EC2E
:10485000190B53EC102BFCF73CF941EC1D0B51EC00
:104860001B0B53EC1D2BFCF7C2F841EC1A0BBF4895
:104870008DED10AB7844109590ED000B4FF000508B
:1048800040EA660000EB84408DED080B00F5002047
:1048900009909DED080B53EC1C2B51EC100BFCF711
:1048A000A0F89DED0E1B53EC112BFCF79DF841EC8D
:1048B000100B53EC102B9DED100B51EC100BFCF773
:1048C00096F89DED080B41EC1C0B53EC102B9DED65
:1048D000100B51EC100BFCF78AF853EC1B2BFCF778
:1048E00083F853EC1C2BFCF77CF853EC1D2BFCF7E6
:1048F0007EF841EC1C0B53EC1A2B51EC1A0BFCF715
:1049000076F841EC1B0B9A480621B0EE4B0AF0EE0C
:104910006B0A784400F058FEB0EE401AF0EE601AD0
:10492000B0EE41DAF0EE61DA53EC1B2B51EC1B0BCD
:10493000FCF75DF853EC1D2BFCF759F89DED100BBF
:1049400041EC1B0B53EC1A2B51EC100BFBF7A8FF9F
:1049500053EC1C2BFCF74BF853EC1B2BFBF7A0FF85
:104960009DED100B41EC1B0B53EC102B51EC100B7D
:10497000FCF73DF841EC1D0B9FED7FEB53EC1E2B3C
:10498000FBF78EFF53EC1B2BFBF78AFF0890CDE95A
:1049900008519DED080B53EC1E2B51EC100BFCF74E
:1049A00020F853EC1D2BFCF71CF853EC1B2BFCF7E9
:1049B0001BF89DED080B41EC1D0B53EC102B9DEDEE
:1049C000100B51EC100BFCF712F841EC1B0B53ECE5
:1049D0001A2B51EC1D0BFCF70AF89DED080B41EC6E
:1049E0001A0B53EC102B51EC1C0BFCF700F853EC9A
:1049F0001A2BFBF755FF41EC1A0B51EC1B0B53EC38
:104A00001A2BFBF74DFF0C90CDE90C519DED0C0BD3
:104A100053EC1B2B51EC100BFBF7E3FF53EC1A2B61
:104A2000FBF7E2FF41EC1B0B9FED550B53EC102BFA
:104A30009DED0C0B51EC100BFBF7D9FF41EC1A0B61
:104A40009FED510B51EC1B0B53EC102BFBF7CFFFE1
:104A500041EC1B0B9FED4E0B53EC102B9DED0C0B03
:104A600051EC100BFBF7C3FF53EC1B2BFBF718FFAC
:104A700041EC100B4848784400EBC40090ED001B5B
:104A800051EC100B53EC112BFBF70AFF41EC1B0B05
:104A90003846FCF78DF8CDE9080153EC1B2B51EC9F
:104AA0001A0BFBF7FDFE41EC100B3C48784400EB81
:104AB000C40090ED00CB51EC100B53EC1C2BFBF71A
:104AC000EFFE9DED081B53EC112BFBF7E9FE069062
:104AD000CDE906519DED080B53EC102B9DED060B17
:104AE00051EC100BFBF77DFF53EC1C2BFBF779FF10
:104AF00053EC1A2BFBF775FF53EC1B2BFBF774FFE2
:104B000041EC100B9DED261B53EC102B8DED001B83
:104B100000959DED260B51EC100BFBF768FF9DED0A
:104B2000000B41EC1A0B53EC102B9DED260B51ECB6
:104B3000100BFBF756FF9DED061B53EC112B2FE0DE
:104B4000000000604715F73FFE822B654715F73FD1
:104B500044DF5DF80BAE543E00000000000040430F
:104B60008E9803007AB60B00D2280000302900008E
:104B70000A280000000000000000000000000840BB
:104B8000000000E009C7EE3FFD033ADC09C7EE3F35
:104B9000F5015B14E02F3EBE962600005026000073
:104BA000FBF725FF53EC1A2BFBF77AFE9DED060B66
:104BB00041EC1A0B53EC102B9DED000B51EC100B3C
:104BC000FBF715FFCDE90C019DED0C0B51EC1A0B19
:104BD00053EC102BFBF764FECDE902010C46AA4909
:104BE0008C422FDB611A084318D19DED0C0B53EC5E
:104BF000102B9DED020B51EC100BFBF7F2FE41EC7C
:104C00001B0B9FEDA30B51EC1A0B53EC102BFBF776
:104C100047FE53EC1B2BFCF7F1F92DD2022000F0DC
:104C200053FE00F021FE10EE901A18EE900A8DED62
:104C3000020B8DED008B61F31E0003909DED020BC6
:104C4000FFF7BEBB944A24F00041914214D393492C
:104C5000214408437FF4EFAC9DED0C0B53EC102B7B
:104C60009DED020B51EC100BFBF7BBFE53EC1A2B26
:104C7000FCF7C4F97FF6DFAC24F000408849894A8C
:104C8000002601EB205182422BDA481C4FF48011A0
:104C900021FA00F02044844AC0F30A517A44A1F278
:104CA000FF3192ED000B814A8DED080BCA4020EADE
:104CB0000202C0F3130040F48010C1F1140120FA85
:104CC00001F60992002CB8BF76429DED080B53EC1B
:104CD000102B9DED0C0B51EC100BFBF782FECDE978
:104CE0000C019DED0C0B51EC1A0B53EC102BFBF748
:104CF000D7FD9FED6F0B0890CDE9085153EC102BB9
:104D00009DED080B51EC100BFBF771FE41EC1B0BFA
:104D10009FED690B53EC102B9DED080B51EC100B24
:104D2000FBF765FE9DED0C0B41EC1C0B53EC102BBF
:104D30009DED080B51EC100BFBF753FE53EC1A2BB7
:104D4000FBF752FE9FED5E1B53EC112BFBF74FFE62
:104D500053EC1C2BFBF7A4FD41EC1A0B51EC1B0B85
:104D600053EC1A2BFBF79CFDCDE902019DED020BE4
:104D700053EC1B2B51EC100BFBF733FE53EC1A2BAF
:104D8000FBF732FE9DED020B41EC1A0B53EC102B9E
:104D900051EC100BFBF72BFECDE908014A489DEDC5
:104DA000080B0521784400F00FFC9DED081B51EC29
:104DB000100B53EC112BFBF71AFE9DED021B53EC6D
:104DC000112BFBF711FECDE906019DED020B53EC13
:104DD0001A2B51EC100BFBF70AFE53EC1A2BFBF7C6
:104DE0005FFD9FED3B0B41EC1A0B53EC102B9DED3F
:104DF000060B51EC100BFBF7F4FD9DED060B41EC9F
:104E00001B0B53EC102B9DED020B51EC100BFBF721
:104E1000EEFD53EC1B2BFBF75CFE53EC1A2BFBF760
:104E2000E0FD9DED021B53EC112BFBF7DAFD53EC7B
:104E3000192BFBF7D9FDCDE9020101EB0650011555
:104E40000029C8BF039015DC9DED020B324651ECE2
:104E5000100BFCF71BF8FEF7F1FC042808BF00F06C
:104E600013FD32469DED020B51EC100BFCF70EF8D2
:104E7000CDE902019DED020B51EC180B53EC102B08
:104E8000FBF7B5FDFFF73ABB0000904000000000C3
:104E9000FE822B654715973C00CC904000346F3F55
:104EA00001FCFFFF0000E03F08250000FFFF0F00AE
:104EB00000000000432EE63F396CA80C615C20BE68
:104EC000EF39FAFE422EE63FA82300000000000062
:104ED000000000000000004010B52F499FED2C1B82
:104EE0002DED020B84B0059820F000408842DCBF15
:104EF00000209DED040B32DD2849884209D1049839
:104F000040B94FF0010000F0DFFC00F09DFC06B05E
:104F100010BD05DB9DED040B00F082FC06B010BD5A
:104F200068469DED040B00F07BF810F0030011D0F3
:104F3000012818D09DED021B9DED000B02281AD010
:104F400000F08AFA51EC100B81F0004106B041EC00
:104F5000100B10BD9DED021B9DED000B012000F01C
:104F6000AFFB06B010BD9DED021B9DED000B00F0E8
:104F700073FA06B010BD012000F0A2FB51EC100B3B
:104F800081F0004106B041EC100B10BD00000000A4
:104F90000000000000000000FB21E93F0000F07F5E
:104FA00000B52DED048BB0EE409AF0EE609A83B020
:104FB00051EC190BFBF781FF41EC180B18EE100AAE
:104FC00018EE901A8DED008B002818BF01200843C1
:104FD00020F00040C0F17F6000F1E040C00F14D02D
:104FE00019EE101A19EE900A8DED009B002918BFDA
:104FF0000121084320F00040C0F17F6000F1E04053
:10500000C00F04BF012000F05FFCB0EE480A03B0FF
:10501000F0EE680ABDEC048B00BD0000000000004B
:105020002DE9F14F04462DED020B2DED088B8AB0D2
:105030009FEDE70B80ED020B139EE74826F000453D
:1050400085420ADC9DED120B002084ED000B0AB0B6
:10505000BDEC088B03B0BDE8F08FE0489FEDE0ABFE
:105060009FEDE1BBA84247DDE14F9FEDE39B9FED44
:10507000E48B9DED120B53EC1A2B51EC100B002E10
:105080001CDDFBF7AEFC41EC100BBD4208D053EC2D
:105090001B2B51EC100BFBF7A4FCC4E900010BE047
:1050A00053EC192B51EC100BFBF79BFC53EC182B1A
:1050B000FBF797FCC4E900010120C8E7FBF7F0FB10
:1050C00041EC100BBD4208D053EC1B2B51EC100BE4
:1050D000FBF7E6FBC4E900010BE053EC192B51ECA4
:1050E000100BFBF7DDFB53EC182BFBF7D9FBC4E9E6
:1050F00000014FF0FF30AAE7C348A84279DB9DEDDD
:10510000120B51EC100B01F08BF841EC180B9FEDDA
:10511000C00B53EC102BFBF76AFC9FEDBF1B53EC4D
:10512000112BFBF7BDFBFCF72FF90746FBF740FD02
:1051300041EC190B53EC1A2BFBF759FC53EC182BD1
:10514000FBF752FC41EC180B53EC1B2B51EC190BE9
:10515000FBF74DFCDFF8C8A241EC100B4FEA1558E5
:105160000125FA4453EC102B51EC180BFBF739FCDA
:10517000032DC4E900013DD0C1F30A5005EB4511F0
:10518000A8EB00001139814234DA0AEB051BB0EEBE
:1051900048AA9BED000BF0EE68AA53EC102B51ECE3
:1051A000190BFBF724FC41EC1B0B51EC1A0B53ECD5
:1051B0001B2BFBF716FC41EC180B51EC1A0B53ECB4
:1051C000182BFBF70EFC53EC1B2BFBF70AFC9BED9B
:1051D000020B41EC1A0B53EC102B51EC190BFBF7A3
:1051E00006FC53EC1A2BFBF7FCFB41EC100B6D1C7F
:1051F000B8E70EE0002EA8BF3846BFF628AF94ED02
:10520000000B51EC100B81F00041C4E90001784221
:105210001DE7C6F3130040F4801EC6F30A50A0F247
:10522000F530471100F01F05C5F12000DDF848B04A
:1052300008900020069007900520EC467949002D43
:1052400007EB0002794408BF51F8221009D051F849
:10525000223001EB8201AB404A68089922FA01F141
:105260001943A1FB0E26A1FB0B131A449A4234BF2B
:105270000123002303EB06080CEB8003D3E901A60E
:105280000E448E4234BF0121002192448A4411B160
:10529000924502D903E0924501D2012100E00021AC
:1052A000C3E901A641444CF82010011EA0F1010001
:1052B000C4DC029800F10050850F0298DDE9036715
:1052C0008000DDF81480FBF773FC41EC1A0B3046CC
:1052D000FBF77FFC9FED541B53EC112BFBF787FB77
:1052E00041EC1B0B3846FBF774FC9FED511B53EC54
:1052F000112BFBF77CFB41EC180B4046FBF769FCDC
:105300009FED4D1B53EC112BFBF771FB41EC190B7F
:1053100051EC180B53EC192BFBF7C2FA53EC1B2B77
:10532000FBF7BEFA53EC1A2BFBF7BAFACDE90801EA
:10533000002008909DED080B53EC1A2B51EC100B3C
:10534000FBF74FFB53EC1B2BFBF74BFB53EC182BE2
:10535000FBF747FB53EC192BFBF746FB9FED381B84
:1053600053EC112BFBF743FB9FED370B41EC180B74
:1053700053EC102B9DED080B51EC100BFBF737FB9A
:1053800053EC182BFBF78CFA9FED310B41EC180B0B
:1053900053EC102B9DED080B51EC100BFBF727FB8A
:1053A00053EC182BFBF77CFA41EC100B139810F020
:1053B000004F06D06D4251EC100B81F0004141ECE2
:1053C000100B284684ED000B41E6000000000000B1
:1053D0000000000000000000FB21E93F7CD90240F2
:1053E00000004054FB21F93F3163621A61B4D03DA3
:1053F000FB21F93F000000000000601A61B4D03DBD
:105400007370032E8A19A33BFB2139410000000071
:1054100083C8C96D305FE43F000000000000E03F3A
:105420004A200000981F0000000000000000103E0D
:10543000000000000000103C000000000000103AD6
:10544000182D4454FB21F93D3326A611460B113C7F
:1054500000000054FB21F93D10B52DED040B2DED9E
:10546000088B82B0B0EE419AF0EE619A0B9820F072
:1054700000449FED4BABB4F1795F11DA9DED0A0B5F
:1054800051EC100BFBF780FF002801BFB0EE4A0A79
:10549000F0EE6A0A02B0BDEC088B04BF04B010BD88
:1054A0009DED0A0B53EC102B51EC100BFBF79FFA00
:1054B00041EC180B3C480621B0EE480AF0EE680AB1
:1054C000784400F081F853EC182B51EC100BFBF7EB
:1054D0008EFA9DED0A0B41EC1B0B53EC192B51EC92
:1054E000100BFBF784FA41EC190B53EC1B2B51EC1E
:1054F000180BFBF77CFA53EC192BFBF772FA9FEDB4
:105500002C0B41EC190B53EC102B51EC180BFBF747
:105510006EFA41EC100B2848844210DA53EC192B38
:1055200051EC100BFBF75DFA53EC1A2BFBF75CFA0E
:1055300041EC100B02B0BDEC088B04B010BD1F484D
:10554000A042BCBF9FED1E1B8DED001B06DBA4F52A
:1055500000100190002000909DED001B51EC100BFD
:1055600053EC112BFBF73DFA9DED000B41EC180BB2
:1055700053EC102B51EC1A0BFBF733FA41EC1A0BDE
:1055800053EC192B51EC180BFBF72BFA53EC1A2B9D
:10559000FBF72AFA41EC100BCCE7000000000000FA
:1055A000000000000000F03FB41C000000000000FC
:1055B000000000000000E03F3333D33F0000E93F2C
:1055C000000000000000D23F70B504462DED028BB4
:1055D0004D1E00EBC500B0EE408AF0EE608A90ED03
:1055E000000B35F0060017D053EC182B51EC100BC4
:1055F000FBF7FDF941EC100B6D1E04EBC50090EDBF
:10560000001B51EC100B53EC112BFBF749F941EC4B
:10561000100B35F00600E7D1022D36D0042D1CD03A
:10562000062D1CBFBDEC028B70BD53EC182B51EC4A
:10563000100BFBF7DCF994ED0A1B53EC112BFBF775
:105640002FF953EC182BFBF7D2F994ED081B53EC10
:10565000112BFBF725F941EC100B53EC182B51ECF7
:10566000100BFBF7C4F994ED061B53EC112BFBF761
:1056700017F953EC182BFBF7BAF994ED040B53EC24
:10568000102BFBF70DF941EC100B53EC182B51ECE0
:10569000100BFBF7ACF994ED021B53EC112BFBF74D
:1056A000FFF853EC182BFBF7A2F994ED001B53EC19
:1056B000112BFBF7F5F8BDEC028B41EC100B70BD24
:1056C00031B504462DED040B2DED0A8BB0EE41BA39
:1056D000F0EE61BA0B989DED0A0B20F00040B0F19E
:1056E000795F0DDA51EC100BFEF7A8F8042808BF1B
:1056F00000F0CAF89DED0A0BBDEC0A8B05B030BD79
:1057000053EC102B51EC100BFBF771F941EC180B1B
:105710009DED0A0B53EC182B51EC100BFBF767F9BE
:1057200041EC190B2C48B0EE480AF0EE680A05214E
:105730007844FFF749FF9FED2ACBB0EE40AAF0EE88
:1057400060AA9CB353EC1C2B51EC190BFBF74FF9DF
:1057500041EC1C0B53EC1A2B51EC190BFBF747F9DE
:105760009FED210B41EC190B53EC102B51EC1B0B53
:10577000FBF73DF953EC192BFBF733F953EC182BDE
:10578000FBF735F953EC1B2BFBF72BF953EC1C2BD8
:10579000FBF727F99DED0A1B53EC112BFBF724F9BE
:1057A000BDEC0A8B05B041EC100B30BDFFE753ECAC
:1057B0001A2B51EC180BFBF71AF953EC1C2BFBF7C7
:1057C0006FF853EC192BFBF712F99DED0A1B53EC04
:1057D000112BFBF765F8E3E7441B00000000000015
:1057E000495555555555C5BF000000000000E03F24
:1057F0009FED070B10B553EC102B9FED070B51ECF1
:10580000100BFBF766F941EC100B10BD0000000017
:105810000000000000000000000000000000F03F59
:1058200010B553EC102B51EC100BFBF739F841EC91
:10583000100B10BD10B553EC112B51EC100BFBF7F6
:105840002FF841EC100B10BD9FED050B10B553EC7C
:10585000102B51EC100BFBF73CF941EC100B10BD79
:1058600000000000000000009FED050B10B553EC98
:10587000102B51EC100BFBF7BAF841EC100B10BDDC
:1058800000000000000000709FED050B10B553EC08
:10589000102B51EC100BFBF7AAF841EC100B10BDCC
:1058A000000000000000001002E008C8121F08C13C
:1058B000002AFAD170477047002001E001C1121F91
:1058C000002AFBD1704700000149086070470000C2
:1058D0008001002030380A2801D2012070470020C2
:1058E000704721EE016AB1EE614AF7EE004AF0EE30
:1058F000003A04EE046AF0EE646AB1EE415AF1EE49
:10590000605A46EE636A26EE826A60EE816A40EE75
:10591000046A66EEA36A06EEA26A60EEA16A40EE31
:10592000456A66EEA36A06EE836A60EEA06A80EDC1
:10593000006A20EE816A44EE046A00EE446AB0EE2A
:10594000644A06EEE34A26EE236A26EE026A04EE75
:10595000226A21EE214A21EE211A00EE254A00EEAC
:10596000651A24EE234A04EE036A20EEA14A00EEF3
:10597000054A21EE230A81ED006A24EE234A24EE33
:10598000022A00EE222A20EEA00A05EE050A40EEC9
:10599000634A04EE832A82ED002A70472DE9F04322
:1059A000012791464FF0020C0023002200EB8306F2
:1059B00001EB830509EB830406EB820898ED000AEE
:1059C00005EB8208D8ED000A04EB8208521C30EE89
:1059D000200ABA4288ED000AEEDB5B1C6345E4DB7B
:1059E000BDE8F0832DE9F0434FF0020C9146674685
:1059F0000023002200EBC30601EBC30509EBC3043F
:105A000006EB820898ED000A05EB8208D8ED000A43
:105A100004EB8208521C30EE200ABA4288ED000ADC
:105A2000EEDB5B1C6345E4DBBDE8F08310B541ECC5
:105A3000100BFEF7DDF851EC100B10BDF8B5054664
:105A4000808C0C46772801D0762857D1012305F1A8
:105A50003202D021284601F084F9E8BB95F83200E3
:105A6000602801D0582849D1B622E021284601F00B
:105A70008EFA88BB01236A46F321284601F071F9AA
:105A80000028F7D19DF80000C007F3D1284601F0A7
:105A900010F9002833D095F83200582804D1284650
:105AA00001F074F900282AD060796178400140EA59
:105AB0008100C2B2F521284601F069FA60B9207868
:105AC000012801D100202070E078A178400140EA4F
:105AD00081002178084300E010E0C6B295F832005A
